{
  "contractName": "Administer",
  "abi": [
    {
      "constant": true,
      "inputs": [],
      "name": "owner",
      "outputs": [
        {
          "name": "",
          "type": "address"
        }
      ],
      "payable": false,
      "stateMutability": "view",
      "type": "function"
    },
    {
      "constant": true,
      "inputs": [
        {
          "name": "",
          "type": "uint256"
        }
      ],
      "name": "studentAccounts",
      "outputs": [
        {
          "name": "studentId",
          "type": "uint256"
        },
        {
          "name": "studentPassword",
          "type": "string"
        }
      ],
      "payable": false,
      "stateMutability": "view",
      "type": "function"
    },
    {
      "constant": true,
      "inputs": [
        {
          "name": "",
          "type": "uint256"
        }
      ],
      "name": "teacherAccounts",
      "outputs": [
        {
          "name": "teacherId",
          "type": "uint256"
        },
        {
          "name": "teacherPassword",
          "type": "string"
        }
      ],
      "payable": false,
      "stateMutability": "view",
      "type": "function"
    },
    {
      "constant": false,
      "inputs": [
        {
          "name": "newOwner",
          "type": "address"
        }
      ],
      "name": "transferOwnership",
      "outputs": [],
      "payable": false,
      "stateMutability": "nonpayable",
      "type": "function"
    },
    {
      "anonymous": false,
      "inputs": [
        {
          "indexed": true,
          "name": "previousOwner",
          "type": "address"
        },
        {
          "indexed": true,
          "name": "newOwner",
          "type": "address"
        }
      ],
      "name": "OwnershipTransferred",
      "type": "event"
    }
  ],
  "bytecode": "0x6080604052336000806101000a81548173ffffffffffffffffffffffffffffffffffffffff021916908373ffffffffffffffffffffffffffffffffffffffff160217905550610597806100536000396000f300608060405260043610610062576000357c0100000000000000000000000000000000000000000000000000000000900463ffffffff1680638da5cb5b14610067578063cd4e0025146100be578063eb3734d61461016b578063f2fde38b14610218575b600080fd5b34801561007357600080fd5b5061007c61025b565b604051808273ffffffffffffffffffffffffffffffffffffffff1673ffffffffffffffffffffffffffffffffffffffff16815260200191505060405180910390f35b3480156100ca57600080fd5b506100e960048036038101908080359060200190929190505050610280565b6040518083815260200180602001828103825283818151815260200191508051906020019080838360005b8381101561012f578082015181840152602081019050610114565b50505050905090810190601f16801561015c5780820380516001836020036101000a031916815260200191505b50935050505060405180910390f35b34801561017757600080fd5b506101966004803603810190808035906020019092919050505061034b565b6040518083815260200180602001828103825283818151815260200191508051906020019080838360005b838110156101dc5780820151818401526020810190506101c1565b50505050905090810190601f1680156102095780820380516001836020036101000a031916815260200191505b50935050505060405180910390f35b34801561022457600080fd5b50610259600480360381019080803573ffffffffffffffffffffffffffffffffffffffff169060200190929190505050610416565b005b6000809054906101000a900473ffffffffffffffffffffffffffffffffffffffff1681565b60028181548110151561028f57fe5b9060005260206000209060020201600091509050806000015490806001018054600181600116156101000203166002900480601f0160208091040260200160405190810160405280929190818152602001828054600181600116156101000203166002900480156103415780601f1061031657610100808354040283529160200191610341565b820191906000526020600020905b81548152906001019060200180831161032457829003601f168201915b5050505050905082565b60038181548110151561035a57fe5b9060005260206000209060020201600091509050806000015490806001018054600181600116156101000203166002900480601f01602080910402602001604051908101604052809291908181526020018280546001816001161561010002031660029004801561040c5780601f106103e15761010080835404028352916020019161040c565b820191906000526020600020905b8154815290600101906020018083116103ef57829003601f168201915b5050505050905082565b6000809054906101000a900473ffffffffffffffffffffffffffffffffffffffff1673ffffffffffffffffffffffffffffffffffffffff163373ffffffffffffffffffffffffffffffffffffffff1614151561047157600080fd5b600073ffffffffffffffffffffffffffffffffffffffff168173ffffffffffffffffffffffffffffffffffffffff16141515156104ad57600080fd5b8073ffffffffffffffffffffffffffffffffffffffff166000809054906101000a900473ffffffffffffffffffffffffffffffffffffffff1673ffffffffffffffffffffffffffffffffffffffff167f8be0079c531659141344cd1fd0a4f28419497f9722a3daafe3b4186f6b6457e060405160405180910390a3806000806101000a81548173ffffffffffffffffffffffffffffffffffffffff021916908373ffffffffffffffffffffffffffffffffffffffff160217905550505600a165627a7a72305820f8959585dc7eb6db81fe9bc4562e42fa055412ec6ac1eb5ec23ccda12c95e4d10029",
  "source": "pragma solidity ^0.4.23;\n\nimport \"./Ownable.sol\";\n\ncontract Administer is Ownable {\n\n    //event NewAccount(uint id, uint password);\n\n    string[] chainData;\n\n    struct studentAccount {\n        uint studentId;\n        string studentPassword;\n    }\n    struct teacherAccount {\n        uint teacherId;\n        string teacherPassword;\n    }\n\n    studentAccount[] public studentAccounts;\n    teacherAccount[] public teacherAccounts;\n\n    mapping(uint => address) idToUser;\n    mapping(uint => string) idToPassword;\n    mapping(address => uint) uploadUserToDataId;\n    mapping(address => string) downloadUserToData;\n\n    modifier onlyAccountOf(uint _id) {\n        require(msg.sender == idToUser[_id]);\n        _;\n    }\n\n    function _createTeacherAccount(uint _id, string _password) internal onlyOwner {\n        teacherAccounts.push(teacherAccount(_id, _password));\n        idToUser[_id] = msg.sender;\n        //NewAccount(_id, _password);\n    }\n\n    function _createStudentAccount(uint _id, string _password) internal onlyOwner{\n        studentAccounts.push(studentAccount(_id, _password));\n        idToUser[_id] = msg.sender;\n        //NewAccount(_id, _password);\n    }\n}",
  "sourcePath": "/Users/februarysea/Documents/GitHub/testContract/contracts/Administer.sol",
  "compiler": {
    "name": "solc",
    "version": "0.4.24+commit.e67f0147.Emscripten.clang"
  },
  "schemaVersion": "2.0.1",
  "updatedAt": "2018-10-29T06:18:16.374Z"
}