{
  "contractName": "Student",
  "abi": [
    {
      "constant": true,
      "inputs": [],
      "name": "owner",
      "outputs": [
        {
          "name": "",
          "type": "address"
        }
      ],
      "payable": false,
      "stateMutability": "view",
      "type": "function"
    },
    {
      "constant": false,
      "inputs": [
        {
          "name": "newOwner",
          "type": "address"
        }
      ],
      "name": "transferOwnership",
      "outputs": [],
      "payable": false,
      "stateMutability": "nonpayable",
      "type": "function"
    },
    {
      "anonymous": false,
      "inputs": [
        {
          "indexed": true,
          "name": "previousOwner",
          "type": "address"
        },
        {
          "indexed": true,
          "name": "newOwner",
          "type": "address"
        }
      ],
      "name": "OwnershipTransferred",
      "type": "event"
    },
    {
      "constant": false,
      "inputs": [
        {
          "name": "id",
          "type": "uint256"
        },
        {
          "name": "data",
          "type": "string"
        }
      ],
      "name": "uploadStudentData",
      "outputs": [],
      "payable": false,
      "stateMutability": "nonpayable",
      "type": "function"
    },
    {
      "constant": false,
      "inputs": [
        {
          "name": "id",
          "type": "uint256"
        },
        {
          "name": "dataId",
          "type": "uint256"
        }
      ],
      "name": "getData",
      "outputs": [],
      "payable": true,
      "stateMutability": "payable",
      "type": "function"
    },
    {
      "constant": false,
      "inputs": [
        {
          "name": "id",
          "type": "uint256"
        }
      ],
      "name": "showDownloadInfo",
      "outputs": [],
      "payable": false,
      "stateMutability": "nonpayable",
      "type": "function"
    },
    {
      "constant": false,
      "inputs": [],
      "name": "withdraw",
      "outputs": [],
      "payable": false,
      "stateMutability": "nonpayable",
      "type": "function"
    }
  ],
  "bytecode": "0x6080604052662386f26fc10000600855336000806101000a81548173ffffffffffffffffffffffffffffffffffffffff021916908373ffffffffffffffffffffffffffffffffffffffff1602179055506108368061005e6000396000f300608060405260043610610078576000357c0100000000000000000000000000000000000000000000000000000000900463ffffffff1680633ccfd60b1461007d5780634e4fe306146100945780638da5cb5b146100be578063b28d46c214610115578063d10b94f214610188578063f2fde38b146101b5575b600080fd5b34801561008957600080fd5b506100926101f8565b005b6100bc60048036038101908080359060200190929190803590602001909291905050506102d4565b005b3480156100ca57600080fd5b506100d361040b565b604051808273ffffffffffffffffffffffffffffffffffffffff1673ffffffffffffffffffffffffffffffffffffffff16815260200191505060405180910390f35b34801561012157600080fd5b5061018660048036038101908080359060200190929190803590602001908201803590602001908080601f0160208091040260200160405190810160405280939291908181526020018383808284378201915050505050509192919290505050610430565b005b34801561019457600080fd5b506101b3600480360381019080803590602001909291905050506104f1565b005b3480156101c157600080fd5b506101f6600480360381019080803573ffffffffffffffffffffffffffffffffffffffff169060200190929190505050610563565b005b6000809054906101000a900473ffffffffffffffffffffffffffffffffffffffff1673ffffffffffffffffffffffffffffffffffffffff163373ffffffffffffffffffffffffffffffffffffffff1614151561025357600080fd5b6000809054906101000a900473ffffffffffffffffffffffffffffffffffffffff1673ffffffffffffffffffffffffffffffffffffffff166108fc3073ffffffffffffffffffffffffffffffffffffffff16319081150290604051600060405180830381858888f193505050501580156102d1573d6000803e3d6000fd5b50565b816004600082815260200190815260200160002060009054906101000a900473ffffffffffffffffffffffffffffffffffffffff1673ffffffffffffffffffffffffffffffffffffffff163373ffffffffffffffffffffffffffffffffffffffff1614151561034257600080fd5b6008543414151561035257600080fd5b61035a6106b8565b6001600081548110151561036a57fe5b90600052602060002001600760006004600087815260200190815260200160002060009054906101000a900473ffffffffffffffffffffffffffffffffffffffff1673ffffffffffffffffffffffffffffffffffffffff1673ffffffffffffffffffffffffffffffffffffffff16815260200190815260200160002090805460018160011615610100020316600290046104059291906106de565b50505050565b6000809054906101000a900473ffffffffffffffffffffffffffffffffffffffff1681565b600181908060018154018082558091505090600182039060005260206000200160009091929091909150908051906020019061046d929190610765565b50506001808054905003600660006004600086815260200190815260200160002060009054906101000a900473ffffffffffffffffffffffffffffffffffffffff1673ffffffffffffffffffffffffffffffffffffffff1673ffffffffffffffffffffffffffffffffffffffff168152602001908152602001600020819055505050565b806004600082815260200190815260200160002060009054906101000a900473ffffffffffffffffffffffffffffffffffffffff1673ffffffffffffffffffffffffffffffffffffffff163373ffffffffffffffffffffffffffffffffffffffff1614151561055f57600080fd5b5050565b6000809054906101000a900473ffffffffffffffffffffffffffffffffffffffff1673ffffffffffffffffffffffffffffffffffffffff163373ffffffffffffffffffffffffffffffffffffffff161415156105be57600080fd5b600073ffffffffffffffffffffffffffffffffffffffff168173ffffffffffffffffffffffffffffffffffffffff16141515156105fa57600080fd5b8073ffffffffffffffffffffffffffffffffffffffff166000809054906101000a900473ffffffffffffffffffffffffffffffffffffffff1673ffffffffffffffffffffffffffffffffffffffff167f8be0079c531659141344cd1fd0a4f28419497f9722a3daafe3b4186f6b6457e060405160405180910390a3806000806101000a81548173ffffffffffffffffffffffffffffffffffffffff021916908373ffffffffffffffffffffffffffffffffffffffff16021790555050565b60008090505b6001808054905003811115156106db5780806001019150506106be565b50565b828054600181600116156101000203166002900490600052602060002090601f016020900481019282601f106107175780548555610754565b8280016001018555821561075457600052602060002091601f016020900482015b82811115610753578254825591600101919060010190610738565b5b50905061076191906107e5565b5090565b828054600181600116156101000203166002900490600052602060002090601f016020900481019282601f106107a657805160ff19168380011785556107d4565b828001600101855582156107d4579182015b828111156107d35782518255916020019190600101906107b8565b5b5090506107e191906107e5565b5090565b61080791905b808211156108035760008160009055506001016107eb565b5090565b905600a165627a7a72305820088bdd170740bf609425aca71e0d150991227ce3551f3fe131d183470a53635c0029",
  "source": "pragma solidity ^0.4.23;\n\nimport \"./Administer.sol\";\n\ncontract Student is Administer {\n    uint dataFee = 0.01 ether;\n\n    function uploadStudentData(uint id, string data)  {\n        chainData.push(data);\n\n        uploadUserToDataId[idToUser[id]] = chainData.length-1;\n    }\n\n    function travelData() internal{\n        uint i = 0;\n        for (i;i<=chainData.length-1;i++){\n            //print(chainData[i])\n        }\n    }\n\n    function getData(uint id, uint dataId) onlyAccountOf(id) payable external {\n        require(msg.value == dataFee);\n        travelData();\n        downloadUserToData[idToUser[id]]=chainData[0];//0代表第一篇笔记\n        //show to download student\n    }\n\n    function showDownloadInfo(uint id) onlyAccountOf(id) {\n\n    }\n\n    function withdraw() external onlyOwner {\n        owner.transfer(this.balance);\n    }\n\n}",
  "sourcePath": "/Users/februarysea/Documents/GitHub/testContract/contracts/Student.sol",
  "compiler": {
    "name": "solc",
    "version": "0.4.24+commit.e67f0147.Emscripten.clang"
  },
  "schemaVersion": "2.0.1",
  "updatedAt": "2018-10-25T12:20:22.195Z"
}