{
  "contractName": "Student",
  "abi": [
    {
      "constant": true,
      "inputs": [],
      "name": "names",
      "outputs": [
        {
          "name": "",
          "type": "string"
        }
      ],
      "payable": false,
      "stateMutability": "view",
      "type": "function"
    },
    {
      "constant": true,
      "inputs": [],
      "name": "owner",
      "outputs": [
        {
          "name": "",
          "type": "address"
        }
      ],
      "payable": false,
      "stateMutability": "view",
      "type": "function"
    },
    {
      "constant": true,
      "inputs": [
        {
          "name": "",
          "type": "uint256"
        }
      ],
      "name": "studentAccounts",
      "outputs": [
        {
          "name": "studentId",
          "type": "uint256"
        },
        {
          "name": "studentPassword",
          "type": "string"
        }
      ],
      "payable": false,
      "stateMutability": "view",
      "type": "function"
    },
    {
      "constant": true,
      "inputs": [
        {
          "name": "",
          "type": "uint256"
        }
      ],
      "name": "teacherAccounts",
      "outputs": [
        {
          "name": "teacherId",
          "type": "uint256"
        },
        {
          "name": "teacherPassword",
          "type": "string"
        }
      ],
      "payable": false,
      "stateMutability": "view",
      "type": "function"
    },
    {
      "constant": false,
      "inputs": [
        {
          "name": "newOwner",
          "type": "address"
        }
      ],
      "name": "transferOwnership",
      "outputs": [],
      "payable": false,
      "stateMutability": "nonpayable",
      "type": "function"
    },
    {
      "anonymous": false,
      "inputs": [
        {
          "indexed": true,
          "name": "previousOwner",
          "type": "address"
        },
        {
          "indexed": true,
          "name": "newOwner",
          "type": "address"
        }
      ],
      "name": "OwnershipTransferred",
      "type": "event"
    },
    {
      "constant": false,
      "inputs": [
        {
          "name": "id",
          "type": "uint256"
        },
        {
          "name": "data",
          "type": "string"
        }
      ],
      "name": "uploadStudentData",
      "outputs": [],
      "payable": false,
      "stateMutability": "nonpayable",
      "type": "function"
    },
    {
      "constant": false,
      "inputs": [
        {
          "name": "id",
          "type": "uint256"
        },
        {
          "name": "dataId",
          "type": "uint256"
        }
      ],
      "name": "getData",
      "outputs": [],
      "payable": true,
      "stateMutability": "payable",
      "type": "function"
    },
    {
      "constant": true,
      "inputs": [],
      "name": "showDownloadInfo",
      "outputs": [
        {
          "name": "",
          "type": "string"
        }
      ],
      "payable": false,
      "stateMutability": "view",
      "type": "function"
    },
    {
      "constant": false,
      "inputs": [],
      "name": "withdraw",
      "outputs": [],
      "payable": false,
      "stateMutability": "nonpayable",
      "type": "function"
    }
  ],
  "bytecode": "0x6080604052662386f26fc10000600855336000806101000a81548173ffffffffffffffffffffffffffffffffffffffff021916908373ffffffffffffffffffffffffffffffffffffffff160217905550610d7a8061005e6000396000f300608060405260043610610099576000357c0100000000000000000000000000000000000000000000000000000000900463ffffffff168063056da0481461009e5780633ccfd60b1461012e5780634da561ee146101455780634e4fe306146101d55780638da5cb5b146101ff578063b28d46c214610256578063cd4e0025146102c9578063eb3734d614610376578063f2fde38b14610423575b600080fd5b3480156100aa57600080fd5b506100b3610466565b6040518080602001828103825283818151815260200191508051906020019080838360005b838110156100f35780820151818401526020810190506100d8565b50505050905090810190601f1680156101205780820380516001836020036101000a031916815260200191505b509250505060405180910390f35b34801561013a57600080fd5b50610143610504565b005b34801561015157600080fd5b5061015a6105e0565b6040518080602001828103825283818151815260200191508051906020019080838360005b8381101561019a57808201518184015260208101905061017f565b50505050905090810190601f1680156101c75780820380516001836020036101000a031916815260200191505b509250505060405180910390f35b6101fd60048036038101908080359060200190929190803590602001909291905050506106f4565b005b34801561020b57600080fd5b5061021461082b565b604051808273ffffffffffffffffffffffffffffffffffffffff1673ffffffffffffffffffffffffffffffffffffffff16815260200191505060405180910390f35b34801561026257600080fd5b506102c760048036038101908080359060200190929190803590602001908201803590602001908080601f0160208091040260200160405190810160405280939291908181526020018383808284378201915050505050509192919290505050610850565b005b3480156102d557600080fd5b506102f460048036038101908080359060200190929190505050610911565b6040518083815260200180602001828103825283818151815260200191508051906020019080838360005b8381101561033a57808201518184015260208101905061031f565b50505050905090810190601f1680156103675780820380516001836020036101000a031916815260200191505b50935050505060405180910390f35b34801561038257600080fd5b506103a1600480360381019080803590602001909291905050506109dc565b6040518083815260200180602001828103825283818151815260200191508051906020019080838360005b838110156103e75780820151818401526020810190506103cc565b50505050905090810190601f1680156104145780820380516001836020036101000a031916815260200191505b50935050505060405180910390f35b34801561042f57600080fd5b50610464600480360381019080803573ffffffffffffffffffffffffffffffffffffffff169060200190929190505050610aa7565b005b60098054600181600116156101000203166002900480601f0160208091040260200160405190810160405280929190818152602001828054600181600116156101000203166002900480156104fc5780601f106104d1576101008083540402835291602001916104fc565b820191906000526020600020905b8154815290600101906020018083116104df57829003601f168201915b505050505081565b6000809054906101000a900473ffffffffffffffffffffffffffffffffffffffff1673ffffffffffffffffffffffffffffffffffffffff163373ffffffffffffffffffffffffffffffffffffffff1614151561055f57600080fd5b6000809054906101000a900473ffffffffffffffffffffffffffffffffffffffff1673ffffffffffffffffffffffffffffffffffffffff166108fc3073ffffffffffffffffffffffffffffffffffffffff16319081150290604051600060405180830381858888f193505050501580156105dd573d6000803e3d6000fd5b50565b60608060405190810160405280602a81526020017f48616e6b2c5374616e2c426f6262792c5368656c6c7920646f776e6c6f61642081526020017f796f7572206e6f7465730000000000000000000000000000000000000000000081525060099080519060200190610653929190610c22565b5060098054600181600116156101000203166002900480601f0160208091040260200160405190810160405280929190818152602001828054600181600116156101000203166002900480156106ea5780601f106106bf576101008083540402835291602001916106ea565b820191906000526020600020905b8154815290600101906020018083116106cd57829003601f168201915b5050505050905090565b816004600082815260200190815260200160002060009054906101000a900473ffffffffffffffffffffffffffffffffffffffff1673ffffffffffffffffffffffffffffffffffffffff163373ffffffffffffffffffffffffffffffffffffffff1614151561076257600080fd5b6008543414151561077257600080fd5b61077a610bfc565b6001600081548110151561078a57fe5b90600052602060002001600760006004600087815260200190815260200160002060009054906101000a900473ffffffffffffffffffffffffffffffffffffffff1673ffffffffffffffffffffffffffffffffffffffff1673ffffffffffffffffffffffffffffffffffffffff1681526020019081526020016000209080546001816001161561010002031660029004610825929190610ca2565b50505050565b6000809054906101000a900473ffffffffffffffffffffffffffffffffffffffff1681565b600181908060018154018082558091505090600182039060005260206000200160009091929091909150908051906020019061088d929190610c22565b50506001808054905003600660006004600086815260200190815260200160002060009054906101000a900473ffffffffffffffffffffffffffffffffffffffff1673ffffffffffffffffffffffffffffffffffffffff1673ffffffffffffffffffffffffffffffffffffffff168152602001908152602001600020819055505050565b60028181548110151561092057fe5b9060005260206000209060020201600091509050806000015490806001018054600181600116156101000203166002900480601f0160208091040260200160405190810160405280929190818152602001828054600181600116156101000203166002900480156109d25780601f106109a7576101008083540402835291602001916109d2565b820191906000526020600020905b8154815290600101906020018083116109b557829003601f168201915b5050505050905082565b6003818154811015156109eb57fe5b9060005260206000209060020201600091509050806000015490806001018054600181600116156101000203166002900480601f016020809104026020016040519081016040528092919081815260200182805460018160011615610100020316600290048015610a9d5780601f10610a7257610100808354040283529160200191610a9d565b820191906000526020600020905b815481529060010190602001808311610a8057829003601f168201915b5050505050905082565b6000809054906101000a900473ffffffffffffffffffffffffffffffffffffffff1673ffffffffffffffffffffffffffffffffffffffff163373ffffffffffffffffffffffffffffffffffffffff16141515610b0257600080fd5b600073ffffffffffffffffffffffffffffffffffffffff168173ffffffffffffffffffffffffffffffffffffffff1614151515610b3e57600080fd5b8073ffffffffffffffffffffffffffffffffffffffff166000809054906101000a900473ffffffffffffffffffffffffffffffffffffffff1673ffffffffffffffffffffffffffffffffffffffff167f8be0079c531659141344cd1fd0a4f28419497f9722a3daafe3b4186f6b6457e060405160405180910390a3806000806101000a81548173ffffffffffffffffffffffffffffffffffffffff021916908373ffffffffffffffffffffffffffffffffffffffff16021790555050565b60008090505b600180805490500381111515610c1f578080600101915050610c02565b50565b828054600181600116156101000203166002900490600052602060002090601f016020900481019282601f10610c6357805160ff1916838001178555610c91565b82800160010185558215610c91579182015b82811115610c90578251825591602001919060010190610c75565b5b509050610c9e9190610d29565b5090565b828054600181600116156101000203166002900490600052602060002090601f016020900481019282601f10610cdb5780548555610d18565b82800160010185558215610d1857600052602060002091601f016020900482015b82811115610d17578254825591600101919060010190610cfc565b5b509050610d259190610d29565b5090565b610d4b91905b80821115610d47576000816000905550600101610d2f565b5090565b905600a165627a7a72305820cf39b1bbf7b60792b43c25f6fa9db58fa1eb5940d2fb956d5283c9c342ef45ed0029",
  "source": "pragma solidity ^0.4.23;\n\nimport \"./Administer.sol\";\n\ncontract Student is Administer {\n    uint dataFee = 0.01 ether;\n    string public names;\n\n    function uploadStudentData(uint id, string data)  {\n        chainData.push(data);\n\n        uploadUserToDataId[idToUser[id]] = chainData.length-1;\n    }\n\n    function travelData() internal{\n        uint i = 0;\n        for (i;i<=chainData.length-1;i++){\n            //print(chainData[i])\n        }\n    }\n\n    function getData(uint id, uint dataId) onlyAccountOf(id) payable external {\n        require(msg.value == dataFee);\n        travelData();\n        downloadUserToData[idToUser[id]]=chainData[0];//0代表第一篇笔记\n        //show to download student\n    }\n\n    function showDownloadInfo() public view returns (string) {\n        names = \"Hank,Stan,Bobby,Shelly download your notes\";\n        return names;\n    }\n\n    function withdraw() external onlyOwner {\n        owner.transfer(this.balance);\n    }\n\n}",
  "sourcePath": "/Users/februarysea/Documents/GitHub/testContract/contracts/Student.sol",
  "compiler": {
    "name": "solc",
    "version": "0.4.24+commit.e67f0147.Emscripten.clang"
  },
  "schemaVersion": "2.0.1",
  "updatedAt": "2018-10-29T12:52:48.042Z"
}